:03000000020800F3
:0C080000787FE4F6D8FD75810C020847F3
:100912007F381209267F0C1209267F011209267FD1
:040922008002092620
:0A0926008FA0C2B012088CC2B222EA
:0A0930008FA0D2B012088CC2B222D0
:0608E7008B088A09890A52
:1008ED00E4F50BF50CAB08AA09A90A850C82850B5A
:1008FD00831208BAFF600D120930050CE50C70E586
:04090D00050B80E175
:0109110022C3
:08088C00C2B1D2B27F0A7E0066
:10089400E4FDFCC3ED9FEE6480F8EC648098501591
:1008A400E4FBFA0BBB00010AEB64FA4A70F50DBDD8
:0508B40000010C80DED4
:0108B900221C
:10080C00020000E493A3F8E493A34003F68001F202
:10081C0008DFF48029E493A3F85407240CC8C333ED
:10082C00C4540F4420C8834004F456800146F6DFBC
:10083C00E4800B010204081020408090093AE47E09
:10084C00019360BCA3FF543F30E509541FFEE493B1
:10085C00A360010ECF54C025E060A840B8E493A378
:10086C00FAE493A3F8E493A3C8C582C8CAC583CAA3
:10087C00F0A3C8C582C8CAC583CADFE9DEE780BE5B
:01093A0000BC
:1008BA00BB010CE58229F582E5833AF583E02250F3
:1008CA0006E92582F8E622BBFE06E92582F8E2223D
:0D08DA00E58229F582E5833AF583E4932257
:00000001FF
